{"abi":[{"type":"function","name":"attestTransaction","inputs":[{"name":"txHash","type":"string","internalType":"string"}],"outputs":[],"stateMutability":"nonpayable"},{"type":"function","name":"attestations","inputs":[{"name":"","type":"string","internalType":"string"}],"outputs":[{"name":"","type":"bool","internalType":"bool"}],"stateMutability":"view"},{"type":"function","name":"verifyAttestation","inputs":[{"name":"txHash","type":"string","internalType":"string"}],"outputs":[{"name":"","type":"bool","internalType":"bool"}],"stateMutability":"view"}],"bytecode":{"object":"0x608060405234801561001057600080fd5b5061023b806100206000396000f3fe608060405234801561001057600080fd5b50600436106100415760003560e01c8063249d026b14610046578063354a11b9146100885780637248f2b41461009d575b600080fd5b610074610054366004610125565b805160208183018101805160008252928201919093012091525460ff1681565b604051901515815260200160405180910390f35b61009b610096366004610125565b6100b0565b005b6100746100ab366004610125565b6100e5565b60016000826040516100c291906101d6565b908152604051908190036020019020805491151560ff1990921691909117905550565b600080826040516100f691906101d6565b9081526040519081900360200190205460ff1692915050565b634e487b7160e01b600052604160045260246000fd5b60006020828403121561013757600080fd5b813567ffffffffffffffff8082111561014f57600080fd5b818401915084601f83011261016357600080fd5b8135818111156101755761017561010f565b604051601f8201601f19908116603f0116810190838211818310171561019d5761019d61010f565b816040528281528760208487010111156101b657600080fd5b826020860160208301376000928101602001929092525095945050505050565b6000825160005b818110156101f757602081860181015185830152016101dd565b50600092019182525091905056fea26469706673582212203686ceb84d4609601ed36c17bc98736225c57e15b289dab0688bffa83c69087764736f6c63430008180033","linkReferences":{}},"methodIdentifiers":{"attestTransaction(string)":"354a11b9","attestations(string)":"249d026b","verifyAttestation(string)":"7248f2b4"},"id":1}