{"abi":[{"type":"function","name":"attestTransactionWithPrivateData","inputs":[{"name":"txHash","type":"string","internalType":"string"},{"name":"encryptedData","type":"string","internalType":"string"}],"outputs":[],"stateMutability":"nonpayable"},{"type":"function","name":"attestations","inputs":[{"name":"","type":"string","internalType":"string"}],"outputs":[{"name":"txHash","type":"string","internalType":"string"},{"name":"encryptedData","type":"string","internalType":"string"},{"name":"attester","type":"address","internalType":"address"}],"stateMutability":"view"},{"type":"function","name":"getAttestation","inputs":[{"name":"txHash","type":"string","internalType":"string"}],"outputs":[{"name":"","type":"string","internalType":"string"},{"name":"","type":"string","internalType":"string"},{"name":"","type":"address","internalType":"address"}],"stateMutability":"view"},{"type":"function","name":"verifyAttestation","inputs":[{"name":"txHash","type":"string","internalType":"string"},{"name":"encryptedData","type":"string","internalType":"string"}],"outputs":[{"name":"","type":"bool","internalType":"bool"}],"stateMutability":"view"},{"type":"event","name":"AttestationCreated","inputs":[{"name":"txHash","type":"string","indexed":false,"internalType":"string"},{"name":"attester","type":"address","indexed":true,"internalType":"address"}],"anonymous":false}],"bytecode":{"object":"0x608060405234801561001057600080fd5b50610a35806100206000396000f3fe608060405234801561001057600080fd5b506004361061004c5760003560e01c806306dda2d314610051578063249d026b146100795780638d5b83611461009b578063d607daf6146100b0575b600080fd5b61006461005f3660046106d9565b6100c3565b60405190151581526020015b60405180910390f35b61008c61008736600461073d565b6101bb565b604051610070939291906107ca565b6100ae6100a93660046106d9565b610301565b005b61008c6100be36600461073d565b61043b565b600080836040516100d49190610808565b90815260405190819003602001902080546100ee90610824565b90506000036101445760405162461bcd60e51b815260206004820152601a60248201527f4174746573746174696f6e20646f6573206e6f7420657869737400000000000060448201526064015b60405180910390fd5b816040516020016101559190610808565b6040516020818303038152906040528051906020012060008460405161017b9190610808565b908152602001604051809103902060010160405160200161019c919061085e565b6040516020818303038152906040528051906020012014905092915050565b80516020818301810180516000825292820191909301209152805481906101e190610824565b80601f016020809104026020016040519081016040528092919081815260200182805461020d90610824565b801561025a5780601f1061022f5761010080835404028352916020019161025a565b820191906000526020600020905b81548152906001019060200180831161023d57829003601f168201915b50505050509080600101805461026f90610824565b80601f016020809104026020016040519081016040528092919081815260200182805461029b90610824565b80156102e85780601f106102bd576101008083540402835291602001916102e8565b820191906000526020600020905b8154815290600101906020018083116102cb57829003601f168201915b505050600290930154919250506001600160a01b031683565b6000826040516103119190610808565b908152604051908190036020019020805461032b90610824565b15905061037a5760405162461bcd60e51b815260206004820152601a60248201527f4174746573746174696f6e20616c726561647920657869737473000000000000604482015260640161013b565b6040805160608101825283815260208101839052338183015290516000906103a3908590610808565b908152604051908190036020019020815181906103c09082610925565b50602082015160018201906103d59082610925565b5060409182015160029190910180546001600160a01b0319166001600160a01b039092169190911790555133907f121ed3452c21306e8ea9b632f37c9aaf822b11f2a6aa980480124ba8b6eb0ac89061042f9085906109e5565b60405180910390a25050565b6060806000808460405161044f9190610808565b908152604051908190036020019020805461046990610824565b90506000036104ba5760405162461bcd60e51b815260206004820152601a60248201527f4174746573746174696f6e20646f6573206e6f74206578697374000000000000604482015260640161013b565b600080856040516104cb9190610808565b90815260200160405180910390206040518060600160405290816000820180546104f490610824565b80601f016020809104026020016040519081016040528092919081815260200182805461052090610824565b801561056d5780601f106105425761010080835404028352916020019161056d565b820191906000526020600020905b81548152906001019060200180831161055057829003601f168201915b5050505050815260200160018201805461058690610824565b80601f01602080910402602001604051908101604052809291908181526020018280546105b290610824565b80156105ff5780601f106105d4576101008083540402835291602001916105ff565b820191906000526020600020905b8154815290600101906020018083116105e257829003601f168201915b5050509183525050600291909101546001600160a01b03166020918201528151908201516040909201519097919650945092505050565b634e487b7160e01b600052604160045260246000fd5b600082601f83011261065d57600080fd5b813567ffffffffffffffff8082111561067857610678610636565b604051601f8301601f19908116603f011681019082821181831017156106a0576106a0610636565b816040528381528660208588010111156106b957600080fd5b836020870160208301376000602085830101528094505050505092915050565b600080604083850312156106ec57600080fd5b823567ffffffffffffffff8082111561070457600080fd5b6107108683870161064c565b9350602085013591508082111561072657600080fd5b506107338582860161064c565b9150509250929050565b60006020828403121561074f57600080fd5b813567ffffffffffffffff81111561076657600080fd5b6107728482850161064c565b949350505050565b60005b8381101561079557818101518382015260200161077d565b50506000910152565b600081518084526107b681602086016020860161077a565b601f01601f19169290920160200192915050565b6060815260006107dd606083018661079e565b82810360208401526107ef818661079e565b91505060018060a01b0383166040830152949350505050565b6000825161081a81846020870161077a565b9190910192915050565b600181811c9082168061083857607f821691505b60208210810361085857634e487b7160e01b600052602260045260246000fd5b50919050565b600080835461086c81610824565b600182811680156108845760018114610899576108c8565b60ff19841687528215158302870194506108c8565b8760005260208060002060005b858110156108bf5781548a8201529084019082016108a6565b50505082870194505b50929695505050505050565b601f821115610920576000816000526020600020601f850160051c810160208610156108fd5750805b601f850160051c820191505b8181101561091c57828155600101610909565b5050505b505050565b815167ffffffffffffffff81111561093f5761093f610636565b6109538161094d8454610824565b846108d4565b602080601f83116001811461098857600084156109705750858301515b600019600386901b1c1916600185901b17855561091c565b600085815260208120601f198616915b828110156109b757888601518255948401946001909101908401610998565b50858210156109d55787850151600019600388901b60f8161c191681555b5050505050600190811b01905550565b6020815260006109f8602083018461079e565b939250505056fea2646970667358221220855189357da2a20abb500fef6c1c6debaf18285f86a4a46a4783dbe8e96996a964736f6c63430008180033","linkReferences":{}},"methodIdentifiers":{"attestTransactionWithPrivateData(string,string)":"8d5b8361","attestations(string)":"249d026b","getAttestation(string)":"d607daf6","verifyAttestation(string,string)":"06dda2d3"},"id":1}